{
	"data": {
		"bytecode": {
			"linkReferences": {},
			"object": "608060405234801561001057600080fd5b506101e9806100206000396000f3fe608060405234801561001057600080fd5b506004361061002b5760003560e01c8063e98b7f4d14610030575b600080fd5b61004a600480360381019061004591906100c0565b610069565b6040516100609a99989796959493929190610117565b60405180910390f35b6000806000806000806000806000809193959799509193959799565b600080fd5b6000819050919050565b61009d8161008a565b81146100a857600080fd5b50565b6000813590506100ba81610094565b92915050565b6000602082840312156100d6576100d5610085565b5b60006100e4848285016100ab565b91505092915050565b60008115159050919050565b610102816100ed565b82525050565b6101118161008a565b82525050565b60006101408201905061012d600083018d6100f9565b61013a602083018c6100f9565b610147604083018b610108565b610154606083018a610108565b6101616080830189610108565b61016e60a0830188610108565b61017b60c0830187610108565b61018860e0830186610108565b610196610100830185610108565b6101a4610120830184610108565b9b9a505050505050505050505056fea2646970667358221220ac0716f10d39b5a6fe8ea8fca47735021d4ee503e4348563bd4f0b143196851b64736f6c63430008110033",
			"opcodes": "PUSH1 0x80 PUSH1 0x40 MSTORE CALLVALUE DUP1 ISZERO PUSH2 0x10 JUMPI PUSH1 0x0 DUP1 REVERT JUMPDEST POP PUSH2 0x1E9 DUP1 PUSH2 0x20 PUSH1 0x0 CODECOPY PUSH1 0x0 RETURN INVALID PUSH1 0x80 PUSH1 0x40 MSTORE CALLVALUE DUP1 ISZERO PUSH2 0x10 JUMPI PUSH1 0x0 DUP1 REVERT JUMPDEST POP PUSH1 0x4 CALLDATASIZE LT PUSH2 0x2B JUMPI PUSH1 0x0 CALLDATALOAD PUSH1 0xE0 SHR DUP1 PUSH4 0xE98B7F4D EQ PUSH2 0x30 JUMPI JUMPDEST PUSH1 0x0 DUP1 REVERT JUMPDEST PUSH2 0x4A PUSH1 0x4 DUP1 CALLDATASIZE SUB DUP2 ADD SWAP1 PUSH2 0x45 SWAP2 SWAP1 PUSH2 0xC0 JUMP JUMPDEST PUSH2 0x69 JUMP JUMPDEST PUSH1 0x40 MLOAD PUSH2 0x60 SWAP11 SWAP10 SWAP9 SWAP8 SWAP7 SWAP6 SWAP5 SWAP4 SWAP3 SWAP2 SWAP1 PUSH2 0x117 JUMP JUMPDEST PUSH1 0x40 MLOAD DUP1 SWAP2 SUB SWAP1 RETURN JUMPDEST PUSH1 0x0 DUP1 PUSH1 0x0 DUP1 PUSH1 0x0 DUP1 PUSH1 0x0 DUP1 PUSH1 0x0 DUP1 SWAP2 SWAP4 SWAP6 SWAP8 SWAP10 POP SWAP2 SWAP4 SWAP6 SWAP8 SWAP10 JUMP JUMPDEST PUSH1 0x0 DUP1 REVERT JUMPDEST PUSH1 0x0 DUP2 SWAP1 POP SWAP2 SWAP1 POP JUMP JUMPDEST PUSH2 0x9D DUP2 PUSH2 0x8A JUMP JUMPDEST DUP2 EQ PUSH2 0xA8 JUMPI PUSH1 0x0 DUP1 REVERT JUMPDEST POP JUMP JUMPDEST PUSH1 0x0 DUP2 CALLDATALOAD SWAP1 POP PUSH2 0xBA DUP2 PUSH2 0x94 JUMP JUMPDEST SWAP3 SWAP2 POP POP JUMP JUMPDEST PUSH1 0x0 PUSH1 0x20 DUP3 DUP5 SUB SLT ISZERO PUSH2 0xD6 JUMPI PUSH2 0xD5 PUSH2 0x85 JUMP JUMPDEST JUMPDEST PUSH1 0x0 PUSH2 0xE4 DUP5 DUP3 DUP6 ADD PUSH2 0xAB JUMP JUMPDEST SWAP2 POP POP SWAP3 SWAP2 POP POP JUMP JUMPDEST PUSH1 0x0 DUP2 ISZERO ISZERO SWAP1 POP SWAP2 SWAP1 POP JUMP JUMPDEST PUSH2 0x102 DUP2 PUSH2 0xED JUMP JUMPDEST DUP3 MSTORE POP POP JUMP JUMPDEST PUSH2 0x111 DUP2 PUSH2 0x8A JUMP JUMPDEST DUP3 MSTORE POP POP JUMP JUMPDEST PUSH1 0x0 PUSH2 0x140 DUP3 ADD SWAP1 POP PUSH2 0x12D PUSH1 0x0 DUP4 ADD DUP14 PUSH2 0xF9 JUMP JUMPDEST PUSH2 0x13A PUSH1 0x20 DUP4 ADD DUP13 PUSH2 0xF9 JUMP JUMPDEST PUSH2 0x147 PUSH1 0x40 DUP4 ADD DUP12 PUSH2 0x108 JUMP JUMPDEST PUSH2 0x154 PUSH1 0x60 DUP4 ADD DUP11 PUSH2 0x108 JUMP JUMPDEST PUSH2 0x161 PUSH1 0x80 DUP4 ADD DUP10 PUSH2 0x108 JUMP JUMPDEST PUSH2 0x16E PUSH1 0xA0 DUP4 ADD DUP9 PUSH2 0x108 JUMP JUMPDEST PUSH2 0x17B PUSH1 0xC0 DUP4 ADD DUP8 PUSH2 0x108 JUMP JUMPDEST PUSH2 0x188 PUSH1 0xE0 DUP4 ADD DUP7 PUSH2 0x108 JUMP JUMPDEST PUSH2 0x196 PUSH2 0x100 DUP4 ADD DUP6 PUSH2 0x108 JUMP JUMPDEST PUSH2 0x1A4 PUSH2 0x120 DUP4 ADD DUP5 PUSH2 0x108 JUMP JUMPDEST SWAP12 SWAP11 POP POP POP POP POP POP POP POP POP POP POP JUMP INVALID LOG2 PUSH5 0x6970667358 0x22 SLT KECCAK256 0xAC SMOD AND CALL 0xD CODECOPY 0xB5 0xA6 INVALID DUP15 0xA8 0xFC LOG4 PUSH24 0x35021D4EE503E4348563BD4F0B143196851B64736F6C6343 STOP ADDMOD GT STOP CALLER "
		},
		"gasEstimates": {
			"creation": {
				"codeDepositCost": "97800",
				"executionCost": "147",
				"totalCost": "97947"
			},
			"external": {
				"getKitty(uint256)": "infinite"
			}
		},
		"methodIdentifiers": {
			"getKitty(uint256)": "e98b7f4d"
		}
	},
	"abi": [
		{
			"inputs": [
				{
					"internalType": "uint256",
					"name": "_id",
					"type": "uint256"
				}
			],
			"name": "getKitty",
			"outputs": [
				{
					"internalType": "bool",
					"name": "isGestating",
					"type": "bool"
				},
				{
					"internalType": "bool",
					"name": "isReady",
					"type": "bool"
				},
				{
					"internalType": "uint256",
					"name": "cooldownIndex",
					"type": "uint256"
				},
				{
					"internalType": "uint256",
					"name": "nextActionAt",
					"type": "uint256"
				},
				{
					"internalType": "uint256",
					"name": "siringWithId",
					"type": "uint256"
				},
				{
					"internalType": "uint256",
					"name": "birthTime",
					"type": "uint256"
				},
				{
					"internalType": "uint256",
					"name": "matronId",
					"type": "uint256"
				},
				{
					"internalType": "uint256",
					"name": "sireId",
					"type": "uint256"
				},
				{
					"internalType": "uint256",
					"name": "generation",
					"type": "uint256"
				},
				{
					"internalType": "uint256",
					"name": "genes",
					"type": "uint256"
				}
			],
			"stateMutability": "view",
			"type": "function"
		}
	]
}